{
  "transactions": [
    {
      "hash": "0xd8607dd16622a680870681b5cf6914d363b01fc6787f5e951825f16af8a0147c",
      "transactionType": "CALL",
      "contractName": null,
      "contractAddress": "0x049791f0d5a729990b763e3d955f5a0bc2e44793",
      "function": "applyChainUpdates((uint64,bool,bytes,bytes,(bool,uint128,uint128),(bool,uint128,uint128))[])",
      "arguments": [
        "[(6898391096552792247, true, 0x00000000000000000000000067e5ce2c90607c1ac56fd998b3546bc12adc3596, 0x00000000000000000000000049fcb95afae59be0e9792ebfa6be5ff6761d7ecc, (false, 0, 0), (false, 0, 0))]"
      ],
      "transaction": {
        "from": "0x88f0807bf33b15bdf234fa2c92b469f665881bce",
        "to": "0x049791f0d5a729990b763e3d955f5a0bc2e44793",
        "gas": "0x525dc",
        "value": "0x0",
        "input": "0xdb6327dc0000000000000000000000000000000000000000000000000000000000000020000000000000000000000000000000000000000000000000000000000000000100000000000000000000000000000000000000000000000000000000000000200000000000000000000000000000000000000000000000005fbc02272fbf20b7000000000000000000000000000000000000000000000000000000000000000100000000000000000000000000000000000000000000000000000000000001400000000000000000000000000000000000000000000000000000000000000180000000000000000000000000000000000000000000000000000000000000000000000000000000000000000000000000000000000000000000000000000000000000000000000000000000000000000000000000000000000000000000000000000000000000000000000000000000000000000000000000000000000000000000000000000000000000000000000000000000000000000000000000000000000000000000000000000000000000000000000000000000000000000000000000000000000000000000000000000000000000000000000000000000000000002000000000000000000000000067e5ce2c90607c1ac56fd998b3546bc12adc3596000000000000000000000000000000000000000000000000000000000000002000000000000000000000000049fcb95afae59be0e9792ebfa6be5ff6761d7ecc",
        "nonce": "0x72",
        "chainId": "0xaa36a7"
      },
      "additionalContracts": [],
      "isFixedGasLimit": false
    }
  ],
  "receipts": [
    {
      "status": "0x1",
      "cumulativeGasUsed": "0x96eb05",
      "logs": [
        {
          "address": "0x049791f0d5a729990b763e3d955f5a0bc2e44793",
          "topics": [
            "0x8d340f17e19058004c20453540862a9c62778504476f6756755cb33bcd6c38c2"
          ],
          "data": "0x0000000000000000000000000000000000000000000000005fbc02272fbf20b70000000000000000000000000000000000000000000000000000000000000100000000000000000000000000000000000000000000000000000000000000000000000000000000000000000000000000000000000000000000000000000000000000000000000000000000000000000000000000000000000000000000000000000000000000000000000000000000000000000000000000000000000000000000000000000000000000000000000000000000000000000000000000000000000000000000000000000000000000000000000000000000000000000000000000000000000000000000000000000000000000000000000000000000000000002000000000000000000000000049fcb95afae59be0e9792ebfa6be5ff6761d7ecc",
          "blockHash": "0xbc154790337ab056a15b6f4d438c2299b829936208ef1aed04966dd06118fe7b",
          "blockNumber": "0x779dee",
          "blockTimestamp": "0x67c88fa0",
          "transactionHash": "0xd8607dd16622a680870681b5cf6914d363b01fc6787f5e951825f16af8a0147c",
          "transactionIndex": "0x5e",
          "logIndex": "0x71",
          "removed": false
        }
      ],
      "logsBloom": "0x00000000000000400000000000000000000000000000000000000000000000000000000000000000000000000000000000000000000000000004000000000000000000000000000000000000000000000000000000000000000000000000000000000000000000000000000000000000000000000000000000000000000000000000000000000000000000000000000000000000800000000000000000000000000000000000000000000000000000000000000000000000000020000000000000000000000000000000000000000000000000000000000000000004000000000000000000000000000000000000000000000000000000000100000000000000",
      "type": "0x2",
      "transactionHash": "0xd8607dd16622a680870681b5cf6914d363b01fc6787f5e951825f16af8a0147c",
      "transactionIndex": "0x5e",
      "blockHash": "0xbc154790337ab056a15b6f4d438c2299b829936208ef1aed04966dd06118fe7b",
      "blockNumber": "0x779dee",
      "gasUsed": "0x3ba1c",
      "effectiveGasPrice": "0x138473cc",
      "from": "0x88f0807bf33b15bdf234fa2c92b469f665881bce",
      "to": "0x049791f0d5a729990b763e3d955f5a0bc2e44793",
      "contractAddress": null
    }
  ],
  "libraries": [],
  "pending": [],
  "returns": {},
  "timestamp": 1741197217,
  "chain": 11155111,
  "commit": "f36b7ef"
}