{
  "transactions": [
    {
      "hash": "0xcddab8d1b8a585d6c2bd062e534bc964d57e5751e4ebbf5ad21e7b75e34d3b41",
      "transactionType": "CALL",
      "contractName": null,
      "contractAddress": "0x4e64269281b2a5e2e18544741421da480917a081",
      "function": "applyChainUpdates((uint64,bool,bytes,bytes,(bool,uint128,uint128),(bool,uint128,uint128))[])",
      "arguments": [
        "[(6898391096552792247, true, 0x0000000000000000000000009bb7618f434b1d5f99fcb254a8e3ef1398c2870c, 0x000000000000000000000000ad27777f08191b5b4db9628e03c2d0e1cd40a9ab, (false, 0, 0), (false, 0, 0))]"
      ],
      "transaction": {
        "from": "0x88f0807bf33b15bdf234fa2c92b469f665881bce",
        "to": "0x4e64269281b2a5e2e18544741421da480917a081",
        "gas": "0x525dc",
        "value": "0x0",
        "input": "0xdb6327dc0000000000000000000000000000000000000000000000000000000000000020000000000000000000000000000000000000000000000000000000000000000100000000000000000000000000000000000000000000000000000000000000200000000000000000000000000000000000000000000000005fbc02272fbf20b700000000000000000000000000000000000000000000000000000000000000010000000000000000000000000000000000000000000000000000000000000140000000000000000000000000000000000000000000000000000000000000018000000000000000000000000000000000000000000000000000000000000000000000000000000000000000000000000000000000000000000000000000000000000000000000000000000000000000000000000000000000000000000000000000000000000000000000000000000000000000000000000000000000000000000000000000000000000000000000000000000000000000000000000000000000000000000000000000000000000000000000000000000000000000000000000000000000000000000000000000000000000000000000000000000000000000200000000000000000000000009bb7618f434b1d5f99fcb254a8e3ef1398c2870c0000000000000000000000000000000000000000000000000000000000000020000000000000000000000000ad27777f08191b5b4db9628e03c2d0e1cd40a9ab",
        "nonce": "0x85",
        "chainId": "0xaa36a7"
      },
      "additionalContracts": [],
      "isFixedGasLimit": false
    }
  ],
  "receipts": [
    {
      "status": "0x1",
      "cumulativeGasUsed": "0x80cf1b",
      "logs": [
        {
          "address": "0x4e64269281b2a5e2e18544741421da480917a081",
          "topics": [
            "0x8d340f17e19058004c20453540862a9c62778504476f6756755cb33bcd6c38c2"
          ],
          "data": "0x0000000000000000000000000000000000000000000000005fbc02272fbf20b700000000000000000000000000000000000000000000000000000000000001000000000000000000000000000000000000000000000000000000000000000000000000000000000000000000000000000000000000000000000000000000000000000000000000000000000000000000000000000000000000000000000000000000000000000000000000000000000000000000000000000000000000000000000000000000000000000000000000000000000000000000000000000000000000000000000000000000000000000000000000000000000000000000000000000000000000000000000000000000000000000000000000000000000000000020000000000000000000000000ad27777f08191b5b4db9628e03c2d0e1cd40a9ab",
          "blockHash": "0x6182e55aea75b087836e24ba1cbefb283c9efddea1fe8e2e31803dabcaa195e7",
          "blockNumber": "0x779e1a",
          "blockTimestamp": "0x67c891b0",
          "transactionHash": "0xcddab8d1b8a585d6c2bd062e534bc964d57e5751e4ebbf5ad21e7b75e34d3b41",
          "transactionIndex": "0x62",
          "logIndex": "0x6a",
          "removed": false
        }
      ],
      "logsBloom": "0x00000000000000400000000000000000000000000000000000000000000000000000000000000000000000000000000000000000000000000004000000000010000000000000000000000000000000000000000000000000000000000000000000000000000000000000000000000000000000000000000000000000000000000000000000000000000000000000000000000000000000000000000000000000000000000000000000000000000000010000000000000000000000000000000000000000000000000000000000000000000000000000000000000000000000000000000000000010000000000000000000000000000000000100000000000000",
      "type": "0x2",
      "transactionHash": "0xcddab8d1b8a585d6c2bd062e534bc964d57e5751e4ebbf5ad21e7b75e34d3b41",
      "transactionIndex": "0x62",
      "blockHash": "0x6182e55aea75b087836e24ba1cbefb283c9efddea1fe8e2e31803dabcaa195e7",
      "blockNumber": "0x779e1a",
      "gasUsed": "0x3ba1c",
      "effectiveGasPrice": "0x15ac68cc",
      "from": "0x88f0807bf33b15bdf234fa2c92b469f665881bce",
      "to": "0x4e64269281b2a5e2e18544741421da480917a081",
      "contractAddress": null
    }
  ],
  "libraries": [],
  "pending": [],
  "returns": {},
  "timestamp": 1741197745,
  "chain": 11155111,
  "commit": "f36b7ef"
}