{
  "transactions": [
    {
      "hash": "0x3bccf5192fcbb18ac00bef7c386b6231752e565e27765da9779473b32dded8fc",
      "transactionType": "CALL",
      "contractName": null,
      "contractAddress": "0x50091406636ca561d4465c573bbc439dc1f618eb",
      "function": "applyChainUpdates((uint64,bool,bytes,bytes,(bool,uint128,uint128),(bool,uint128,uint128))[])",
      "arguments": [
        "[(6898391096552792247, true, 0x000000000000000000000000e5ee76a9e51572d987d4643102f12413e5aa21d6, 0x0000000000000000000000009f003ff40ab4371c8b4c536bab80d48b5b1e5248, (false, 0, 0), (false, 0, 0))]"
      ],
      "transaction": {
        "from": "0x88f0807bf33b15bdf234fa2c92b469f665881bce",
        "to": "0x50091406636ca561d4465c573bbc439dc1f618eb",
        "gas": "0x525cc",
        "value": "0x0",
        "input": "0xdb6327dc0000000000000000000000000000000000000000000000000000000000000020000000000000000000000000000000000000000000000000000000000000000100000000000000000000000000000000000000000000000000000000000000200000000000000000000000000000000000000000000000005fbc02272fbf20b70000000000000000000000000000000000000000000000000000000000000001000000000000000000000000000000000000000000000000000000000000014000000000000000000000000000000000000000000000000000000000000001800000000000000000000000000000000000000000000000000000000000000000000000000000000000000000000000000000000000000000000000000000000000000000000000000000000000000000000000000000000000000000000000000000000000000000000000000000000000000000000000000000000000000000000000000000000000000000000000000000000000000000000000000000000000000000000000000000000000000000000000000000000000000000000000000000000000000000000000000000000000000000000000000000000000000020000000000000000000000000e5ee76a9e51572d987d4643102f12413e5aa21d600000000000000000000000000000000000000000000000000000000000000200000000000000000000000009f003ff40ab4371c8b4c536bab80d48b5b1e5248",
        "nonce": "0x65",
        "chainId": "0xaa36a7"
      },
      "additionalContracts": [],
      "isFixedGasLimit": false
    }
  ],
  "receipts": [
    {
      "status": "0x1",
      "cumulativeGasUsed": "0xd7e6e1",
      "logs": [
        {
          "address": "0x50091406636ca561d4465c573bbc439dc1f618eb",
          "topics": [
            "0x8d340f17e19058004c20453540862a9c62778504476f6756755cb33bcd6c38c2"
          ],
          "data": "0x0000000000000000000000000000000000000000000000005fbc02272fbf20b7000000000000000000000000000000000000000000000000000000000000010000000000000000000000000000000000000000000000000000000000000000000000000000000000000000000000000000000000000000000000000000000000000000000000000000000000000000000000000000000000000000000000000000000000000000000000000000000000000000000000000000000000000000000000000000000000000000000000000000000000000000000000000000000000000000000000000000000000000000000000000000000000000000000000000000000000000000000000000000000000000000000000000000000000000000200000000000000000000000009f003ff40ab4371c8b4c536bab80d48b5b1e5248",
          "blockHash": "0x2b149ce68b985adbe050a3aea90b129e1befb4023a70fbb73fbbd22baf065109",
          "blockNumber": "0x779c77",
          "blockTimestamp": "0x67c87df4",
          "transactionHash": "0x3bccf5192fcbb18ac00bef7c386b6231752e565e27765da9779473b32dded8fc",
          "transactionIndex": "0x68",
          "logIndex": "0xa4",
          "removed": false
        }
      ],
      "logsBloom": "0x00000000000000400000000000000000000000000000000000000000000000000000000000000000000000000000000000000000000000000004000000000002000000000000000000000000000000000000000000000000000000000000000000000000000000000000000000000000000000000000000000000000000000000000000000000000002000000000000000000000000000000000000000000000000000000000000000000000000000000000000000000000000000000000000000000000000000000000000000000000000000000000000000000000000000000000000000000000008000000000000000000000000000000100000000000000",
      "type": "0x2",
      "transactionHash": "0x3bccf5192fcbb18ac00bef7c386b6231752e565e27765da9779473b32dded8fc",
      "transactionIndex": "0x68",
      "blockHash": "0x2b149ce68b985adbe050a3aea90b129e1befb4023a70fbb73fbbd22baf065109",
      "blockNumber": "0x779c77",
      "gasUsed": "0x3ba10",
      "effectiveGasPrice": "0x11cd3b04",
      "from": "0x88f0807bf33b15bdf234fa2c92b469f665881bce",
      "to": "0x50091406636ca561d4465c573bbc439dc1f618eb",
      "contractAddress": null
    }
  ],
  "libraries": [],
  "pending": [],
  "returns": {},
  "timestamp": 1741192693,
  "chain": 11155111,
  "commit": "2a55633"
}