{
  "transactions": [
    {
      "hash": "0x5b0f52c612d162c43c2d7f11ae2e6272a72a863c53a354a886c43b124cd183a5",
      "transactionType": "CALL",
      "contractName": null,
      "contractAddress": "0x779877a7b0d9e8603169ddbd7836e478b4624789",
      "function": "approve(address,uint256)",
      "arguments": [
        "0x0BF3dE8c5D3e8A2B34D2BEeB17ABfCeBaf363A59",
        "18059113929915733"
      ],
      "transaction": {
        "from": "0x88f0807bf33b15bdf234fa2c92b469f665881bce",
        "to": "0x779877a7b0d9e8603169ddbd7836e478b4624789",
        "gas": "0x1081f",
        "value": "0x0",
        "input": "0x095ea7b30000000000000000000000000bf3de8c5d3e8a2b34d2beeb17abfcebaf363a59000000000000000000000000000000000000000000000000004028ab1ec03d55",
        "nonce": "0x87",
        "chainId": "0xaa36a7"
      },
      "additionalContracts": [],
      "isFixedGasLimit": false
    },
    {
      "hash": "0x9bbd63ce9ee4434037e31042bd83aabc54e342c39185ca8cf5ab87e61f35a8a6",
      "transactionType": "CALL",
      "contractName": null,
      "contractAddress": "0x8bcb08974957e63306dfe74804a6f2874995e736",
      "function": "approve(address,uint256)",
      "arguments": [
        "0x0BF3dE8c5D3e8A2B34D2BEeB17ABfCeBaf363A59",
        "100000"
      ],
      "transaction": {
        "from": "0x88f0807bf33b15bdf234fa2c92b469f665881bce",
        "to": "0x8bcb08974957e63306dfe74804a6f2874995e736",
        "gas": "0x10c27",
        "value": "0x0",
        "input": "0x095ea7b30000000000000000000000000bf3de8c5d3e8a2b34d2beeb17abfcebaf363a5900000000000000000000000000000000000000000000000000000000000186a0",
        "nonce": "0x88",
        "chainId": "0xaa36a7"
      },
      "additionalContracts": [],
      "isFixedGasLimit": false
    },
    {
      "hash": "0x974c81a68eaa090594a79a9d7a5afea0a21a8b6765f5a005fdc14fa4fdd61eb1",
      "transactionType": "CALL",
      "contractName": null,
      "contractAddress": "0x0bf3de8c5d3e8a2b34d2beeb17abfcebaf363a59",
      "function": "ccipSend(uint64,(bytes,bytes,(address,uint256)[],address,bytes))",
      "arguments": [
        "6898391096552792247",
        "(0x00000000000000000000000088f0807bf33b15bdf234fa2c92b469f665881bce, 0x, [(0x8BCb08974957e63306DFe74804a6f2874995e736, 100000)], 0x779877A7B0D9E8603169DdbD7836e478b4624789, 0x97a657c90000000000000000000000000000000000000000000000000000000000000000)"
      ],
      "transaction": {
        "from": "0x88f0807bf33b15bdf234fa2c92b469f665881bce",
        "to": "0x0bf3de8c5d3e8a2b34d2beeb17abfcebaf363a59",
        "gas": "0x590e5",
        "value": "0x0",
        "input": "0x96f4e9f90000000000000000000000000000000000000000000000005fbc02272fbf20b7000000000000000000000000000000000000000000000000000000000000004000000000000000000000000000000000000000000000000000000000000000a000000000000000000000000000000000000000000000000000000000000000e00000000000000000000000000000000000000000000000000000000000000100000000000000000000000000779877a7b0d9e8603169ddbd7836e478b46247890000000000000000000000000000000000000000000000000000000000000160000000000000000000000000000000000000000000000000000000000000002000000000000000000000000088f0807bf33b15bdf234fa2c92b469f665881bce000000000000000000000000000000000000000000000000000000000000000000000000000000000000000000000000000000000000000000000000000000010000000000000000000000008bcb08974957e63306dfe74804a6f2874995e73600000000000000000000000000000000000000000000000000000000000186a0000000000000000000000000000000000000000000000000000000000000002497a657c9000000000000000000000000000000000000000000000000000000000000000000000000000000000000000000000000000000000000000000000000",
        "nonce": "0x89",
        "chainId": "0xaa36a7"
      },
      "additionalContracts": [],
      "isFixedGasLimit": false
    }
  ],
  "receipts": [
    {
      "status": "0x1",
      "cumulativeGasUsed": "0xf291c3",
      "logs": [
        {
          "address": "0x779877a7b0d9e8603169ddbd7836e478b4624789",
          "topics": [
            "0x8c5be1e5ebec7d5bd14f71427d1e84f3dd0314c0f7b2291e5b200ac8c7c3b925",
            "0x00000000000000000000000088f0807bf33b15bdf234fa2c92b469f665881bce",
            "0x0000000000000000000000000bf3de8c5d3e8a2b34d2beeb17abfcebaf363a59"
          ],
          "data": "0x000000000000000000000000000000000000000000000000004028ab1ec03d55",
          "blockHash": "0x6732c073a4bed1a87f2bfc8601334ee0363e3afaf4d1af14c51ebd04afe1ba3b",
          "blockNumber": "0x779e21",
          "blockTimestamp": "0x67c89204",
          "transactionHash": "0x5b0f52c612d162c43c2d7f11ae2e6272a72a863c53a354a886c43b124cd183a5",
          "transactionIndex": "0x80",
          "logIndex": "0xbf",
          "removed": false
        }
      ],
      "logsBloom": "0x00000004000040000000000000000000000000000000000000000000000000000000000000000000000000008000000000000000000000000000000000200000000000000000000000000000000000000000000000000000000000000000000000000000000100000000000000000000000000000000000000000000000000000000000000000000000000000000800000000000000000000000000000000000020000000000080400001000000000000000000000000000000000000000000000000000000000000000000000000000000000000000000100000000000000000010000000000000000000000000000000000000000000000000000000000000",
      "type": "0x2",
      "transactionHash": "0x5b0f52c612d162c43c2d7f11ae2e6272a72a863c53a354a886c43b124cd183a5",
      "transactionIndex": "0x80",
      "blockHash": "0x6732c073a4bed1a87f2bfc8601334ee0363e3afaf4d1af14c51ebd04afe1ba3b",
      "blockNumber": "0x779e21",
      "gasUsed": "0xb499",
      "effectiveGasPrice": "0x15d8f885",
      "from": "0x88f0807bf33b15bdf234fa2c92b469f665881bce",
      "to": "0x779877a7b0d9e8603169ddbd7836e478b4624789",
      "contractAddress": null
    },
    {
      "status": "0x1",
      "cumulativeGasUsed": "0xf3491e",
      "logs": [
        {
          "address": "0x8bcb08974957e63306dfe74804a6f2874995e736",
          "topics": [
            "0x8c5be1e5ebec7d5bd14f71427d1e84f3dd0314c0f7b2291e5b200ac8c7c3b925",
            "0x00000000000000000000000088f0807bf33b15bdf234fa2c92b469f665881bce",
            "0x0000000000000000000000000bf3de8c5d3e8a2b34d2beeb17abfcebaf363a59"
          ],
          "data": "0x00000000000000000000000000000000000000000000000000000000000186a0",
          "blockHash": "0x6732c073a4bed1a87f2bfc8601334ee0363e3afaf4d1af14c51ebd04afe1ba3b",
          "blockNumber": "0x779e21",
          "blockTimestamp": "0x67c89204",
          "transactionHash": "0x9bbd63ce9ee4434037e31042bd83aabc54e342c39185ca8cf5ab87e61f35a8a6",
          "transactionIndex": "0x81",
          "logIndex": "0xc0",
          "removed": false
        }
      ],
      "logsBloom": "0x00000000000040000000000000000000000000000000000000400000000000000000000000000000000000008000000000000000000000000000000000200000000000000002000000000000000000000000000000000000000000000000000000000000000100000000000000000000000000000000000000000000000000000000000000000000000000000000000000000000000000000000000000000000020000000000080400001000000000000000000000000000000000000000000000000000000000000000000000000000000000000000000000000000000000000010000000000000000008000000000000000000000000000000000000000000",
      "type": "0x2",
      "transactionHash": "0x9bbd63ce9ee4434037e31042bd83aabc54e342c39185ca8cf5ab87e61f35a8a6",
      "transactionIndex": "0x81",
      "blockHash": "0x6732c073a4bed1a87f2bfc8601334ee0363e3afaf4d1af14c51ebd04afe1ba3b",
      "blockNumber": "0x779e21",
      "gasUsed": "0xb75b",
      "effectiveGasPrice": "0x15d8f885",
      "from": "0x88f0807bf33b15bdf234fa2c92b469f665881bce",
      "to": "0x8bcb08974957e63306dfe74804a6f2874995e736",
      "contractAddress": null
    },
    {
      "status": "0x1",
      "cumulativeGasUsed": "0xf71768",
      "logs": [
        {
          "address": "0x779877a7b0d9e8603169ddbd7836e478b4624789",
          "topics": [
            "0xddf252ad1be2c89b69c2b068fc378daa952ba7f163c4a11628f55a4df523b3ef",
            "0x00000000000000000000000088f0807bf33b15bdf234fa2c92b469f665881bce",
            "0x000000000000000000000000a2865e4f36760f5fa5c8f958336120f2df0d974b"
          ],
          "data": "0x000000000000000000000000000000000000000000000000004028ab1ec03d55",
          "blockHash": "0x6732c073a4bed1a87f2bfc8601334ee0363e3afaf4d1af14c51ebd04afe1ba3b",
          "blockNumber": "0x779e21",
          "blockTimestamp": "0x67c89204",
          "transactionHash": "0x974c81a68eaa090594a79a9d7a5afea0a21a8b6765f5a005fdc14fa4fdd61eb1",
          "transactionIndex": "0x82",
          "logIndex": "0xc1",
          "removed": false
        },
        {
          "address": "0x779877a7b0d9e8603169ddbd7836e478b4624789",
          "topics": [
            "0x8c5be1e5ebec7d5bd14f71427d1e84f3dd0314c0f7b2291e5b200ac8c7c3b925",
            "0x00000000000000000000000088f0807bf33b15bdf234fa2c92b469f665881bce",
            "0x0000000000000000000000000bf3de8c5d3e8a2b34d2beeb17abfcebaf363a59"
          ],
          "data": "0x0000000000000000000000000000000000000000000000000000000000000000",
          "blockHash": "0x6732c073a4bed1a87f2bfc8601334ee0363e3afaf4d1af14c51ebd04afe1ba3b",
          "blockNumber": "0x779e21",
          "blockTimestamp": "0x67c89204",
          "transactionHash": "0x974c81a68eaa090594a79a9d7a5afea0a21a8b6765f5a005fdc14fa4fdd61eb1",
          "transactionIndex": "0x82",
          "logIndex": "0xc2",
          "removed": false
        },
        {
          "address": "0x8bcb08974957e63306dfe74804a6f2874995e736",
          "topics": [
            "0xddf252ad1be2c89b69c2b068fc378daa952ba7f163c4a11628f55a4df523b3ef",
            "0x0000000000000000000000000000000000000000000000000000000000000000",
            "0x00000000000000000000000088f0807bf33b15bdf234fa2c92b469f665881bce"
          ],
          "data": "0x0000000000000000000000000000000000000000000000000000000000000000",
          "blockHash": "0x6732c073a4bed1a87f2bfc8601334ee0363e3afaf4d1af14c51ebd04afe1ba3b",
          "blockNumber": "0x779e21",
          "blockTimestamp": "0x67c89204",
          "transactionHash": "0x974c81a68eaa090594a79a9d7a5afea0a21a8b6765f5a005fdc14fa4fdd61eb1",
          "transactionIndex": "0x82",
          "logIndex": "0xc3",
          "removed": false
        },
        {
          "address": "0x8bcb08974957e63306dfe74804a6f2874995e736",
          "topics": [
            "0xddf252ad1be2c89b69c2b068fc378daa952ba7f163c4a11628f55a4df523b3ef",
            "0x0000000000000000000000000000000000000000000000000000000000000000",
            "0x0000000000000000000000004e64269281b2a5e2e18544741421da480917a081"
          ],
          "data": "0x0000000000000000000000000000000000000000000000000000000000000000",
          "blockHash": "0x6732c073a4bed1a87f2bfc8601334ee0363e3afaf4d1af14c51ebd04afe1ba3b",
          "blockNumber": "0x779e21",
          "blockTimestamp": "0x67c89204",
          "transactionHash": "0x974c81a68eaa090594a79a9d7a5afea0a21a8b6765f5a005fdc14fa4fdd61eb1",
          "transactionIndex": "0x82",
          "logIndex": "0xc4",
          "removed": false
        },
        {
          "address": "0x8bcb08974957e63306dfe74804a6f2874995e736",
          "topics": [
            "0xddf252ad1be2c89b69c2b068fc378daa952ba7f163c4a11628f55a4df523b3ef",
            "0x00000000000000000000000088f0807bf33b15bdf234fa2c92b469f665881bce",
            "0x0000000000000000000000004e64269281b2a5e2e18544741421da480917a081"
          ],
          "data": "0x00000000000000000000000000000000000000000000000000000000000186a0",
          "blockHash": "0x6732c073a4bed1a87f2bfc8601334ee0363e3afaf4d1af14c51ebd04afe1ba3b",
          "blockNumber": "0x779e21",
          "blockTimestamp": "0x67c89204",
          "transactionHash": "0x974c81a68eaa090594a79a9d7a5afea0a21a8b6765f5a005fdc14fa4fdd61eb1",
          "transactionIndex": "0x82",
          "logIndex": "0xc5",
          "removed": false
        },
        {
          "address": "0x8bcb08974957e63306dfe74804a6f2874995e736",
          "topics": [
            "0xddf252ad1be2c89b69c2b068fc378daa952ba7f163c4a11628f55a4df523b3ef",
            "0x0000000000000000000000000000000000000000000000000000000000000000",
            "0x0000000000000000000000004e64269281b2a5e2e18544741421da480917a081"
          ],
          "data": "0x0000000000000000000000000000000000000000000000000000000000000000",
          "blockHash": "0x6732c073a4bed1a87f2bfc8601334ee0363e3afaf4d1af14c51ebd04afe1ba3b",
          "blockNumber": "0x779e21",
          "blockTimestamp": "0x67c89204",
          "transactionHash": "0x974c81a68eaa090594a79a9d7a5afea0a21a8b6765f5a005fdc14fa4fdd61eb1",
          "transactionIndex": "0x82",
          "logIndex": "0xc6",
          "removed": false
        },
        {
          "address": "0x8bcb08974957e63306dfe74804a6f2874995e736",
          "topics": [
            "0xddf252ad1be2c89b69c2b068fc378daa952ba7f163c4a11628f55a4df523b3ef",
            "0x0000000000000000000000004e64269281b2a5e2e18544741421da480917a081",
            "0x0000000000000000000000000000000000000000000000000000000000000000"
          ],
          "data": "0x00000000000000000000000000000000000000000000000000000000000186a0",
          "blockHash": "0x6732c073a4bed1a87f2bfc8601334ee0363e3afaf4d1af14c51ebd04afe1ba3b",
          "blockNumber": "0x779e21",
          "blockTimestamp": "0x67c89204",
          "transactionHash": "0x974c81a68eaa090594a79a9d7a5afea0a21a8b6765f5a005fdc14fa4fdd61eb1",
          "transactionIndex": "0x82",
          "logIndex": "0xc7",
          "removed": false
        },
        {
          "address": "0xa2865e4f36760f5fa5c8f958336120f2df0d974b",
          "topics": [
            "0xd0c3c799bf9e2639de44391e7f524d229b2b55f5b1ea94b2bf7da42f7243dddd"
          ],
          "data": "0x0000000000000000000000000000000000000000000000000000000000000020000000000000000000000000000000000000000000000000de41ba4fc9d91ad900000000000000000000000088f0807bf33b15bdf234fa2c92b469f665881bce00000000000000000000000088f0807bf33b15bdf234fa2c92b469f665881bce00000000000000000000000000000000000000000000000000000000000001db000000000000000000000000000000000000000000000000000000000000000000000000000000000000000000000000000000000000000000000000000000000000000000000000000000000000000000000000000000000000000000000002000000000000000000000000779877a7b0d9e8603169ddbd7836e478b4624789000000000000000000000000000000000000000000000000004028ab1ec03d5500000000000000000000000000000000000000000000000000000000000001a000000000000000000000000000000000000000000000000000000000000001c0000000000000000000000000000000000000000000000000000000000000022090b1df93fa0191ae50831f1a9fe02b19f4ab38c71fc08dc11ef12d36f651d77f000000000000000000000000000000000000000000000000000000000000000000000000000000000000000000000000000000000000000000000000000000010000000000000000000000008bcb08974957e63306dfe74804a6f2874995e73600000000000000000000000000000000000000000000000000000000000186a00000000000000000000000000000000000000000000000000000000000000001000000000000000000000000000000000000000000000000000000000000002000000000000000000000000000000000000000000000000000000000000001600000000000000000000000000000000000000000000000000000000000000020000000000000000000000000000000000000000000000000000000000000008000000000000000000000000000000000000000000000000000000000000000c000000000000000000000000000000000000000000000000000000000000001000000000000000000000000000000000000000000000000000000000000015f9000000000000000000000000000000000000000000000000000000000000000200000000000000000000000004e64269281b2a5e2e18544741421da480917a0810000000000000000000000000000000000000000000000000000000000000020000000000000000000000000ad27777f08191b5b4db9628e03c2d0e1cd40a9ab00000000000000000000000000000000000000000000000000000000000000200000000000000000000000000000000000000000000000000000000ba43b7400",
          "blockHash": "0x6732c073a4bed1a87f2bfc8601334ee0363e3afaf4d1af14c51ebd04afe1ba3b",
          "blockNumber": "0x779e21",
          "blockTimestamp": "0x67c89204",
          "transactionHash": "0x974c81a68eaa090594a79a9d7a5afea0a21a8b6765f5a005fdc14fa4fdd61eb1",
          "transactionIndex": "0x82",
          "logIndex": "0xc8",
          "removed": false
        }
      ],
      "logsBloom": "0x00000004000040000000000000000000000000000000000000400000000000000000000000000000000000008000000000000000000080000000000000200000000000000002000002000008000000000000000000000000000000000000000010000000020100000000000000000800000000000000100000000010000000000000000000000000000000000000800000000000000000000000000000000000020000000000080400001000000000000000000000000000000100010000000000000002000000000000000000000000000000000100000100000040000020000010800000000000000008000000000004000800000000000000000000000000",
      "type": "0x2",
      "transactionHash": "0x974c81a68eaa090594a79a9d7a5afea0a21a8b6765f5a005fdc14fa4fdd61eb1",
      "transactionIndex": "0x82",
      "blockHash": "0x6732c073a4bed1a87f2bfc8601334ee0363e3afaf4d1af14c51ebd04afe1ba3b",
      "blockNumber": "0x779e21",
      "gasUsed": "0x3ce4a",
      "effectiveGasPrice": "0x15d8f885",
      "from": "0x88f0807bf33b15bdf234fa2c92b469f665881bce",
      "to": "0x0bf3de8c5d3e8a2b34d2beeb17abfcebaf363a59",
      "contractAddress": null
    }
  ],
  "libraries": [],
  "pending": [],
  "returns": {},
  "timestamp": 1741197830,
  "chain": 11155111,
  "commit": "f36b7ef"
}