{
  "transactions": [
    {
      "hash": "0x35439b7cac05b3dd96f22996d5bf4bc73160a3a5daf9a7e5a4fce969b91a6a3c",
      "transactionType": "CALL",
      "contractName": null,
      "contractAddress": "0x779877a7b0d9e8603169ddbd7836e478b4624789",
      "function": "approve(address,uint256)",
      "arguments": [
        "0x0BF3dE8c5D3e8A2B34D2BEeB17ABfCeBaf363A59",
        "18059113929915733"
      ],
      "transaction": {
        "from": "0x88f0807bf33b15bdf234fa2c92b469f665881bce",
        "to": "0x779877a7b0d9e8603169ddbd7836e478b4624789",
        "gas": "0x1081f",
        "value": "0x0",
        "input": "0x095ea7b30000000000000000000000000bf3de8c5d3e8a2b34d2beeb17abfcebaf363a59000000000000000000000000000000000000000000000000004028ab1ec03d55",
        "nonce": "0x67",
        "chainId": "0xaa36a7"
      },
      "additionalContracts": [],
      "isFixedGasLimit": false
    },
    {
      "hash": "0x8befce0d9952edcb0bb8fb20b99858b4a0042520f7412b058ac040944ddf4b8d",
      "transactionType": "CALL",
      "contractName": null,
      "contractAddress": "0x70ca0c09ab0b3f40cc321ba218f7740e47c1099b",
      "function": "approve(address,uint256)",
      "arguments": [
        "0x0BF3dE8c5D3e8A2B34D2BEeB17ABfCeBaf363A59",
        "100000"
      ],
      "transaction": {
        "from": "0x88f0807bf33b15bdf234fa2c92b469f665881bce",
        "to": "0x70ca0c09ab0b3f40cc321ba218f7740e47c1099b",
        "gas": "0x10c27",
        "value": "0x0",
        "input": "0x095ea7b30000000000000000000000000bf3de8c5d3e8a2b34d2beeb17abfcebaf363a5900000000000000000000000000000000000000000000000000000000000186a0",
        "nonce": "0x68",
        "chainId": "0xaa36a7"
      },
      "additionalContracts": [],
      "isFixedGasLimit": false
    },
    {
      "hash": "0x92bd6ede633303162493a2c18881777fe617870a3e2a385b4a40ecae3e1721e9",
      "transactionType": "CALL",
      "contractName": null,
      "contractAddress": "0x0bf3de8c5d3e8a2b34d2beeb17abfcebaf363a59",
      "function": "ccipSend(uint64,(bytes,bytes,(address,uint256)[],address,bytes))",
      "arguments": [
        "6898391096552792247",
        "(0x00000000000000000000000088f0807bf33b15bdf234fa2c92b469f665881bce, 0x, [(0x70CA0C09aB0B3F40Cc321Ba218f7740E47c1099b, 100000)], 0x779877A7B0D9E8603169DdbD7836e478b4624789, 0x97a657c90000000000000000000000000000000000000000000000000000000000000000)"
      ],
      "transaction": {
        "from": "0x88f0807bf33b15bdf234fa2c92b469f665881bce",
        "to": "0x0bf3de8c5d3e8a2b34d2beeb17abfcebaf363a59",
        "gas": "0x5f216",
        "value": "0x0",
        "input": "0x96f4e9f90000000000000000000000000000000000000000000000005fbc02272fbf20b7000000000000000000000000000000000000000000000000000000000000004000000000000000000000000000000000000000000000000000000000000000a000000000000000000000000000000000000000000000000000000000000000e00000000000000000000000000000000000000000000000000000000000000100000000000000000000000000779877a7b0d9e8603169ddbd7836e478b46247890000000000000000000000000000000000000000000000000000000000000160000000000000000000000000000000000000000000000000000000000000002000000000000000000000000088f0807bf33b15bdf234fa2c92b469f665881bce0000000000000000000000000000000000000000000000000000000000000000000000000000000000000000000000000000000000000000000000000000000100000000000000000000000070ca0c09ab0b3f40cc321ba218f7740e47c1099b00000000000000000000000000000000000000000000000000000000000186a0000000000000000000000000000000000000000000000000000000000000002497a657c9000000000000000000000000000000000000000000000000000000000000000000000000000000000000000000000000000000000000000000000000",
        "nonce": "0x69",
        "chainId": "0xaa36a7"
      },
      "additionalContracts": [],
      "isFixedGasLimit": false
    }
  ],
  "receipts": [
    {
      "status": "0x1",
      "cumulativeGasUsed": "0xa11df3",
      "logs": [
        {
          "address": "0x779877a7b0d9e8603169ddbd7836e478b4624789",
          "topics": [
            "0x8c5be1e5ebec7d5bd14f71427d1e84f3dd0314c0f7b2291e5b200ac8c7c3b925",
            "0x00000000000000000000000088f0807bf33b15bdf234fa2c92b469f665881bce",
            "0x0000000000000000000000000bf3de8c5d3e8a2b34d2beeb17abfcebaf363a59"
          ],
          "data": "0x000000000000000000000000000000000000000000000000004028ab1ec03d55",
          "blockHash": "0xaf6c0085ce219383f57ac50751efb08e3ce57c68207383807f47cdd1eb7a7881",
          "blockNumber": "0x779d30",
          "blockTimestamp": "0x67c886b8",
          "transactionHash": "0x35439b7cac05b3dd96f22996d5bf4bc73160a3a5daf9a7e5a4fce969b91a6a3c",
          "transactionIndex": "0x4b",
          "logIndex": "0x69",
          "removed": false
        }
      ],
      "logsBloom": "0x00000004000040000000000000000000000000000000000000000000000000000000000000000000000000008000000000000000000000000000000000200000000000000000000000000000000000000000000000000000000000000000000000000000000100000000000000000000000000000000000000000000000000000000000000000000000000000000800000000000000000000000000000000000020000000000080400001000000000000000000000000000000000000000000000000000000000000000000000000000000000000000000100000000000000000010000000000000000000000000000000000000000000000000000000000000",
      "type": "0x2",
      "transactionHash": "0x35439b7cac05b3dd96f22996d5bf4bc73160a3a5daf9a7e5a4fce969b91a6a3c",
      "transactionIndex": "0x4b",
      "blockHash": "0xaf6c0085ce219383f57ac50751efb08e3ce57c68207383807f47cdd1eb7a7881",
      "blockNumber": "0x779d30",
      "gasUsed": "0xb499",
      "effectiveGasPrice": "0x1ce90a24",
      "from": "0x88f0807bf33b15bdf234fa2c92b469f665881bce",
      "to": "0x779877a7b0d9e8603169ddbd7836e478b4624789",
      "contractAddress": null
    },
    {
      "status": "0x1",
      "cumulativeGasUsed": "0xa1d54e",
      "logs": [
        {
          "address": "0x70ca0c09ab0b3f40cc321ba218f7740e47c1099b",
          "topics": [
            "0x8c5be1e5ebec7d5bd14f71427d1e84f3dd0314c0f7b2291e5b200ac8c7c3b925",
            "0x00000000000000000000000088f0807bf33b15bdf234fa2c92b469f665881bce",
            "0x0000000000000000000000000bf3de8c5d3e8a2b34d2beeb17abfcebaf363a59"
          ],
          "data": "0x00000000000000000000000000000000000000000000000000000000000186a0",
          "blockHash": "0xaf6c0085ce219383f57ac50751efb08e3ce57c68207383807f47cdd1eb7a7881",
          "blockNumber": "0x779d30",
          "blockTimestamp": "0x67c886b8",
          "transactionHash": "0x8befce0d9952edcb0bb8fb20b99858b4a0042520f7412b058ac040944ddf4b8d",
          "transactionIndex": "0x4c",
          "logIndex": "0x6a",
          "removed": false
        }
      ],
      "logsBloom": "0x00000040000040000000000000000000000000000000000000000000000000000000010000000000000000008000000000000000000000000000000000200000000000000000000000000000000000000000000000000000000000000000000000000000000100000000000000000000000000000000000000000000000000000000000000000000000000000000000000000000000000000000000000000000020000000000080400001000000000000000000000000000000000000000000000000000000000000000000000000000000000000000000000000000000000000010000000000000000000000000000000000000000000000000000000000000",
      "type": "0x2",
      "transactionHash": "0x8befce0d9952edcb0bb8fb20b99858b4a0042520f7412b058ac040944ddf4b8d",
      "transactionIndex": "0x4c",
      "blockHash": "0xaf6c0085ce219383f57ac50751efb08e3ce57c68207383807f47cdd1eb7a7881",
      "blockNumber": "0x779d30",
      "gasUsed": "0xb75b",
      "effectiveGasPrice": "0x1ce90a24",
      "from": "0x88f0807bf33b15bdf234fa2c92b469f665881bce",
      "to": "0x70ca0c09ab0b3f40cc321ba218f7740e47c1099b",
      "contractAddress": null
    },
    {
      "status": "0x1",
      "cumulativeGasUsed": "0xa62345",
      "logs": [
        {
          "address": "0x779877a7b0d9e8603169ddbd7836e478b4624789",
          "topics": [
            "0xddf252ad1be2c89b69c2b068fc378daa952ba7f163c4a11628f55a4df523b3ef",
            "0x00000000000000000000000088f0807bf33b15bdf234fa2c92b469f665881bce",
            "0x000000000000000000000000a2865e4f36760f5fa5c8f958336120f2df0d974b"
          ],
          "data": "0x000000000000000000000000000000000000000000000000004028ab1ec03d55",
          "blockHash": "0xaf6c0085ce219383f57ac50751efb08e3ce57c68207383807f47cdd1eb7a7881",
          "blockNumber": "0x779d30",
          "blockTimestamp": "0x67c886b8",
          "transactionHash": "0x92bd6ede633303162493a2c18881777fe617870a3e2a385b4a40ecae3e1721e9",
          "transactionIndex": "0x4d",
          "logIndex": "0x6b",
          "removed": false
        },
        {
          "address": "0x779877a7b0d9e8603169ddbd7836e478b4624789",
          "topics": [
            "0x8c5be1e5ebec7d5bd14f71427d1e84f3dd0314c0f7b2291e5b200ac8c7c3b925",
            "0x00000000000000000000000088f0807bf33b15bdf234fa2c92b469f665881bce",
            "0x0000000000000000000000000bf3de8c5d3e8a2b34d2beeb17abfcebaf363a59"
          ],
          "data": "0x0000000000000000000000000000000000000000000000000000000000000000",
          "blockHash": "0xaf6c0085ce219383f57ac50751efb08e3ce57c68207383807f47cdd1eb7a7881",
          "blockNumber": "0x779d30",
          "blockTimestamp": "0x67c886b8",
          "transactionHash": "0x92bd6ede633303162493a2c18881777fe617870a3e2a385b4a40ecae3e1721e9",
          "transactionIndex": "0x4d",
          "logIndex": "0x6c",
          "removed": false
        },
        {
          "address": "0x70ca0c09ab0b3f40cc321ba218f7740e47c1099b",
          "topics": [
            "0xddf252ad1be2c89b69c2b068fc378daa952ba7f163c4a11628f55a4df523b3ef",
            "0x0000000000000000000000000000000000000000000000000000000000000000",
            "0x00000000000000000000000088f0807bf33b15bdf234fa2c92b469f665881bce"
          ],
          "data": "0x000000000000000000000000000000000000000000000000000000000000000b",
          "blockHash": "0xaf6c0085ce219383f57ac50751efb08e3ce57c68207383807f47cdd1eb7a7881",
          "blockNumber": "0x779d30",
          "blockTimestamp": "0x67c886b8",
          "transactionHash": "0x92bd6ede633303162493a2c18881777fe617870a3e2a385b4a40ecae3e1721e9",
          "transactionIndex": "0x4d",
          "logIndex": "0x6d",
          "removed": false
        },
        {
          "address": "0x70ca0c09ab0b3f40cc321ba218f7740e47c1099b",
          "topics": [
            "0xddf252ad1be2c89b69c2b068fc378daa952ba7f163c4a11628f55a4df523b3ef",
            "0x0000000000000000000000000000000000000000000000000000000000000000",
            "0x00000000000000000000000050091406636ca561d4465c573bbc439dc1f618eb"
          ],
          "data": "0x0000000000000000000000000000000000000000000000000000000000000000",
          "blockHash": "0xaf6c0085ce219383f57ac50751efb08e3ce57c68207383807f47cdd1eb7a7881",
          "blockNumber": "0x779d30",
          "blockTimestamp": "0x67c886b8",
          "transactionHash": "0x92bd6ede633303162493a2c18881777fe617870a3e2a385b4a40ecae3e1721e9",
          "transactionIndex": "0x4d",
          "logIndex": "0x6e",
          "removed": false
        },
        {
          "address": "0x70ca0c09ab0b3f40cc321ba218f7740e47c1099b",
          "topics": [
            "0xddf252ad1be2c89b69c2b068fc378daa952ba7f163c4a11628f55a4df523b3ef",
            "0x00000000000000000000000088f0807bf33b15bdf234fa2c92b469f665881bce",
            "0x00000000000000000000000050091406636ca561d4465c573bbc439dc1f618eb"
          ],
          "data": "0x00000000000000000000000000000000000000000000000000000000000186a0",
          "blockHash": "0xaf6c0085ce219383f57ac50751efb08e3ce57c68207383807f47cdd1eb7a7881",
          "blockNumber": "0x779d30",
          "blockTimestamp": "0x67c886b8",
          "transactionHash": "0x92bd6ede633303162493a2c18881777fe617870a3e2a385b4a40ecae3e1721e9",
          "transactionIndex": "0x4d",
          "logIndex": "0x6f",
          "removed": false
        },
        {
          "address": "0x70ca0c09ab0b3f40cc321ba218f7740e47c1099b",
          "topics": [
            "0xddf252ad1be2c89b69c2b068fc378daa952ba7f163c4a11628f55a4df523b3ef",
            "0x0000000000000000000000000000000000000000000000000000000000000000",
            "0x00000000000000000000000050091406636ca561d4465c573bbc439dc1f618eb"
          ],
          "data": "0x0000000000000000000000000000000000000000000000000000000000000000",
          "blockHash": "0xaf6c0085ce219383f57ac50751efb08e3ce57c68207383807f47cdd1eb7a7881",
          "blockNumber": "0x779d30",
          "blockTimestamp": "0x67c886b8",
          "transactionHash": "0x92bd6ede633303162493a2c18881777fe617870a3e2a385b4a40ecae3e1721e9",
          "transactionIndex": "0x4d",
          "logIndex": "0x70",
          "removed": false
        },
        {
          "address": "0x70ca0c09ab0b3f40cc321ba218f7740e47c1099b",
          "topics": [
            "0xddf252ad1be2c89b69c2b068fc378daa952ba7f163c4a11628f55a4df523b3ef",
            "0x00000000000000000000000050091406636ca561d4465c573bbc439dc1f618eb",
            "0x0000000000000000000000000000000000000000000000000000000000000000"
          ],
          "data": "0x00000000000000000000000000000000000000000000000000000000000186a0",
          "blockHash": "0xaf6c0085ce219383f57ac50751efb08e3ce57c68207383807f47cdd1eb7a7881",
          "blockNumber": "0x779d30",
          "blockTimestamp": "0x67c886b8",
          "transactionHash": "0x92bd6ede633303162493a2c18881777fe617870a3e2a385b4a40ecae3e1721e9",
          "transactionIndex": "0x4d",
          "logIndex": "0x71",
          "removed": false
        },
        {
          "address": "0xa2865e4f36760f5fa5c8f958336120f2df0d974b",
          "topics": [
            "0xd0c3c799bf9e2639de44391e7f524d229b2b55f5b1ea94b2bf7da42f7243dddd"
          ],
          "data": "0x0000000000000000000000000000000000000000000000000000000000000020000000000000000000000000000000000000000000000000de41ba4fc9d91ad900000000000000000000000088f0807bf33b15bdf234fa2c92b469f665881bce00000000000000000000000088f0807bf33b15bdf234fa2c92b469f665881bce00000000000000000000000000000000000000000000000000000000000001da000000000000000000000000000000000000000000000000000000000000000000000000000000000000000000000000000000000000000000000000000000000000000000000000000000000000000000000000000000000000000000000001000000000000000000000000779877a7b0d9e8603169ddbd7836e478b4624789000000000000000000000000000000000000000000000000004028ab1ec03d5500000000000000000000000000000000000000000000000000000000000001a000000000000000000000000000000000000000000000000000000000000001c000000000000000000000000000000000000000000000000000000000000002203755e1a6df5886519415d3ce9be92aaaa5b8f5a919dc225d188713b395eee5340000000000000000000000000000000000000000000000000000000000000000000000000000000000000000000000000000000000000000000000000000000100000000000000000000000070ca0c09ab0b3f40cc321ba218f7740e47c1099b00000000000000000000000000000000000000000000000000000000000186a00000000000000000000000000000000000000000000000000000000000000001000000000000000000000000000000000000000000000000000000000000002000000000000000000000000000000000000000000000000000000000000001600000000000000000000000000000000000000000000000000000000000000020000000000000000000000000000000000000000000000000000000000000008000000000000000000000000000000000000000000000000000000000000000c000000000000000000000000000000000000000000000000000000000000001000000000000000000000000000000000000000000000000000000000000015f90000000000000000000000000000000000000000000000000000000000000002000000000000000000000000050091406636ca561d4465c573bbc439dc1f618eb00000000000000000000000000000000000000000000000000000000000000200000000000000000000000009f003ff40ab4371c8b4c536bab80d48b5b1e524800000000000000000000000000000000000000000000000000000000000000200000000000000000000000000000000000000000000000000000000ba43b7400",
          "blockHash": "0xaf6c0085ce219383f57ac50751efb08e3ce57c68207383807f47cdd1eb7a7881",
          "blockNumber": "0x779d30",
          "blockTimestamp": "0x67c886b8",
          "transactionHash": "0x92bd6ede633303162493a2c18881777fe617870a3e2a385b4a40ecae3e1721e9",
          "transactionIndex": "0x4d",
          "logIndex": "0x72",
          "removed": false
        }
      ],
      "logsBloom": "0x00000044000040000000000000000000000000000000000000000000000000000000010000000000000000008000000000000000000000000000000000200000000000000000800000000008000000000080000000000000000000000000000010000000020100000000000000000800000000000000100000000010000000000000000000000000000000000000800000000000000000000000000000000040020000000000080400001000000000000000000000000000000100010000000000000002000000000000000000000000000000000100000100000000000020000010800000000000000000000000000004000800000000000000000000000000",
      "type": "0x2",
      "transactionHash": "0x92bd6ede633303162493a2c18881777fe617870a3e2a385b4a40ecae3e1721e9",
      "transactionIndex": "0x4d",
      "blockHash": "0xaf6c0085ce219383f57ac50751efb08e3ce57c68207383807f47cdd1eb7a7881",
      "blockNumber": "0x779d30",
      "gasUsed": "0x44df7",
      "effectiveGasPrice": "0x1ce90a24",
      "from": "0x88f0807bf33b15bdf234fa2c92b469f665881bce",
      "to": "0x0bf3de8c5d3e8a2b34d2beeb17abfcebaf363a59",
      "contractAddress": null
    }
  ],
  "libraries": [],
  "pending": [],
  "returns": {},
  "timestamp": 1741194940,
  "chain": 11155111,
  "commit": "2a55633"
}